{
  "contractName": "CollatPoolRegister",
  "abi": [
    {
      "inputs": [],
      "payable": false,
      "stateMutability": "nonpayable",
      "type": "constructor"
    },
    {
      "constant": true,
      "inputs": [],
      "name": "lastPoolId",
      "outputs": [
        {
          "internalType": "uint256",
          "name": "",
          "type": "uint256"
        }
      ],
      "payable": false,
      "stateMutability": "view",
      "type": "function"
    },
    {
      "constant": true,
      "inputs": [
        {
          "internalType": "uint256",
          "name": "",
          "type": "uint256"
        }
      ],
      "name": "poolOwners",
      "outputs": [
        {
          "internalType": "address",
          "name": "",
          "type": "address"
        }
      ],
      "payable": false,
      "stateMutability": "view",
      "type": "function"
    },
    {
      "constant": true,
      "inputs": [
        {
          "internalType": "uint256",
          "name": "",
          "type": "uint256"
        }
      ],
      "name": "pools",
      "outputs": [
        {
          "internalType": "address",
          "name": "",
          "type": "address"
        }
      ],
      "payable": false,
      "stateMutability": "view",
      "type": "function"
    },
    {
      "constant": false,
      "inputs": [
        {
          "internalType": "uint256",
          "name": "duration",
          "type": "uint256"
        }
      ],
      "name": "createNewPool",
      "outputs": [
        {
          "internalType": "address",
          "name": "",
          "type": "address"
        }
      ],
      "payable": true,
      "stateMutability": "payable",
      "type": "function"
    }
  ],
  "bytecode": "0x608060405234801561001057600080fd5b50610b2d806100206000396000f3fe60806040526004361061003f5760003560e01c806385de2d5914610044578063865d049d146100b2578063a657e5791461012d578063ac4afa3814610158575b600080fd5b6100706004803603602081101561005a57600080fd5b81019080803590602001909291905050506101d3565b604051808273ffffffffffffffffffffffffffffffffffffffff1673ffffffffffffffffffffffffffffffffffffffff16815260200191505060405180910390f35b3480156100be57600080fd5b506100eb600480360360208110156100d557600080fd5b8101908080359060200190929190505050610370565b604051808273ffffffffffffffffffffffffffffffffffffffff1673ffffffffffffffffffffffffffffffffffffffff16815260200191505060405180910390f35b34801561013957600080fd5b506101426103a3565b6040518082815260200191505060405180910390f35b34801561016457600080fd5b506101916004803603602081101561017b57600080fd5b81019080803590602001909291905050506103a9565b604051808273ffffffffffffffffffffffffffffffffffffffff1673ffffffffffffffffffffffffffffffffffffffff16815260200191505060405180910390f35b600080600081548092919060010191905055506000805433846040516101f8906103dc565b808481526020018373ffffffffffffffffffffffffffffffffffffffff1673ffffffffffffffffffffffffffffffffffffffff1681526020018281526020019350505050604051809103906000f080158015610258573d6000803e3d6000fd5b50905080600260008054815260200190815260200160002060006101000a81548173ffffffffffffffffffffffffffffffffffffffff021916908373ffffffffffffffffffffffffffffffffffffffff16021790555033600160008054815260200190815260200160002060006101000a81548173ffffffffffffffffffffffffffffffffffffffff021916908373ffffffffffffffffffffffffffffffffffffffff1602179055508073ffffffffffffffffffffffffffffffffffffffff164760405180600001905060006040518083038185875af1925050503d806000811461035f576040519150601f19603f3d011682016040523d82523d6000602084013e610364565b606091505b50505080915050919050565b60016020528060005260406000206000915054906101000a900473ffffffffffffffffffffffffffffffffffffffff1681565b60005481565b60026020528060005260406000206000915054906101000a900473ffffffffffffffffffffffffffffffffffffffff1681565b61070f806103ea8339019056fe608060405260405161070f38038061070f8339818101604052606081101561002657600080fd5b810190808051906020019092919080519060200190929190805190602001909291905050508260008190555081600360006101000a81548173ffffffffffffffffffffffffffffffffffffffff021916908373ffffffffffffffffffffffffffffffffffffffff160217905550600060018190555060006002819055506000600360009054906101000a900473ffffffffffffffffffffffffffffffffffffffff166000546040516100d79061018f565b808373ffffffffffffffffffffffffffffffffffffffff1673ffffffffffffffffffffffffffffffffffffffff16815260200182815260200192505050604051809103906000f080158015610130573d6000803e3d6000fd5b50905080600460006101000a81548173ffffffffffffffffffffffffffffffffffffffff021916908373ffffffffffffffffffffffffffffffffffffffff1602179055504260058190555081600554016006819055505050505061019c565b6102878061048883390190565b6102dd806101ab6000396000f3fe60806040526004361061007b5760003560e01c8063ce845d1d1161004e578063ce845d1d14610128578063cf0b227014610153578063d8270dce146101aa578063f38d4333146101d55761007b565b80633e0dc34e1461009d5780636c61ad09146100c857806394bd2d3b146100d2578063c24a0f8b146100fd575b3460016000828254019250508190555034600260008282540192505081905550005b3480156100a957600080fd5b506100b261022c565b6040518082815260200191505060405180910390f35b6100d0610232565b005b3480156100de57600080fd5b506100e7610244565b6040518082815260200191505060405180910390f35b34801561010957600080fd5b5061011261024a565b6040518082815260200191505060405180910390f35b34801561013457600080fd5b5061013d610250565b6040518082815260200191505060405180910390f35b34801561015f57600080fd5b50610168610256565b604051808273ffffffffffffffffffffffffffffffffffffffff1673ffffffffffffffffffffffffffffffffffffffff16815260200191505060405180910390f35b3480156101b657600080fd5b506101bf61027c565b6040518082815260200191505060405180910390f35b3480156101e157600080fd5b506101ea610282565b604051808273ffffffffffffffffffffffffffffffffffffffff1673ffffffffffffffffffffffffffffffffffffffff16815260200191505060405180910390f35b60005481565b34600260008282540192505081905550565b60015481565b60065481565b60025481565b600360009054906101000a900473ffffffffffffffffffffffffffffffffffffffff1681565b60055481565b600460009054906101000a900473ffffffffffffffffffffffffffffffffffffffff168156fea265627a7a723158202f3d84218c0b65061788386cc4286d01ea341ea4a15939e7deffa54cca1e4a7064736f6c6343000510003260806040526040516102873803806102878339818101604052604081101561002657600080fd5b810190808051906020019092919080519060200190929190505050336000806101000a81548173ffffffffffffffffffffffffffffffffffffffff021916908373ffffffffffffffffffffffffffffffffffffffff16021790555081600260006101000a81548173ffffffffffffffffffffffffffffffffffffffff021916908373ffffffffffffffffffffffffffffffffffffffff1602179055508060018190555050506101ad806100da6000396000f3fe608060405234801561001057600080fd5b506004361061004c5760003560e01c80633e0dc34e146100515780639138ec3a1461006f578063cf0b22701461008d578063ff0eccf6146100d7575b600080fd5b610059610121565b6040518082815260200191505060405180910390f35b610077610127565b6040518082815260200191505060405180910390f35b61009561012d565b604051808273ffffffffffffffffffffffffffffffffffffffff1673ffffffffffffffffffffffffffffffffffffffff16815260200191505060405180910390f35b6100df610153565b604051808273ffffffffffffffffffffffffffffffffffffffff1673ffffffffffffffffffffffffffffffffffffffff16815260200191505060405180910390f35b60015481565b60035481565b600260009054906101000a900473ffffffffffffffffffffffffffffffffffffffff1681565b6000809054906101000a900473ffffffffffffffffffffffffffffffffffffffff168156fea265627a7a723158206b248d5d03f7ca6679b49d575ab9530cbeb16ab3fd098c97987b68f66639717564736f6c63430005100032a265627a7a72315820763572cf7c91c40967b58cae0e4d1d1628dc0cda03ab4267e675ae7f85258d6264736f6c63430005100032",
  "source": "pragma solidity ^0.5.0;\r\n\r\nimport './CollateralPool.sol';\r\n\r\ncontract CollatPoolRegister {\r\n    uint public lastPoolId;\r\n    mapping (uint => address) public poolOwners;\r\n    mapping (uint => address) public pools;\r\n\r\n\r\n    constructor() public {}\r\n\r\n    function createNewPool(uint duration) public payable returns(address) {\r\n        lastPoolId++;\r\n        CollateralPool newPool = new CollateralPool(lastPoolId, msg.sender, duration);    // creates new collateralpool\r\n        pools[lastPoolId] = address(newPool);                                   // adds poolId to pools mapping\r\n        poolOwners[lastPoolId] = msg.sender;                                    // adds pool owner to poolOwners mapping\r\n        address(newPool).call.value(address(this).balance)(\"\");                 // transfer funds to pool\r\n        return (address(newPool));                                              // returns new pool address\r\n        // TODO\r\n        // Details of exposure layer\r\n        // Convert mappings to mappings of arrays (multiple collateral pools per address)\r\n    }\r\n}\r\n\r\n\r\n\r\n\r\n\r\n\r\n\r\n",
  "sourcePath": "C:\\Users\\Ben\\Documents\\GitHub\\surevx-collatpool\\contracts\\CollatPoolRegister.sol",
  "compiler": {
    "name": "solc",
    "version": "0.5.16+commit.9c3226ce.Emscripten.clang"
  },
  "schemaVersion": "3.0.23",
  "updatedAt": "2020-02-13T16:59:32.976Z",
  "networkType": "ethereum",
  "devdoc": {
    "methods": {}
  },
  "userdoc": {
    "methods": {}
  }
}