{
  "contractName": "SinglePoolCollat",
  "abi": [
    {
      "inputs": [
        {
          "internalType": "address",
          "name": "_poolOwner",
          "type": "address"
        },
        {
          "internalType": "uint256",
          "name": "_poolId",
          "type": "uint256"
        }
      ],
      "payable": true,
      "stateMutability": "payable",
      "type": "constructor"
    },
    {
      "constant": true,
      "inputs": [],
      "name": "collateralPool",
      "outputs": [
        {
          "internalType": "address",
          "name": "",
          "type": "address"
        }
      ],
      "payable": false,
      "stateMutability": "view",
      "type": "function"
    },
    {
      "constant": true,
      "inputs": [],
      "name": "openBalance",
      "outputs": [
        {
          "internalType": "uint256",
          "name": "",
          "type": "uint256"
        }
      ],
      "payable": false,
      "stateMutability": "view",
      "type": "function"
    },
    {
      "constant": true,
      "inputs": [],
      "name": "poolId",
      "outputs": [
        {
          "internalType": "uint256",
          "name": "",
          "type": "uint256"
        }
      ],
      "payable": false,
      "stateMutability": "view",
      "type": "function"
    },
    {
      "constant": true,
      "inputs": [],
      "name": "poolOwner",
      "outputs": [
        {
          "internalType": "address",
          "name": "",
          "type": "address"
        }
      ],
      "payable": false,
      "stateMutability": "view",
      "type": "function"
    }
  ],
  "bytecode": "0x60806040526040516102873803806102878339818101604052604081101561002657600080fd5b810190808051906020019092919080519060200190929190505050336000806101000a81548173ffffffffffffffffffffffffffffffffffffffff021916908373ffffffffffffffffffffffffffffffffffffffff16021790555081600260006101000a81548173ffffffffffffffffffffffffffffffffffffffff021916908373ffffffffffffffffffffffffffffffffffffffff1602179055508060018190555050506101ad806100da6000396000f3fe608060405234801561001057600080fd5b506004361061004c5760003560e01c80633e0dc34e146100515780639138ec3a1461006f578063cf0b22701461008d578063ff0eccf6146100d7575b600080fd5b610059610121565b6040518082815260200191505060405180910390f35b610077610127565b6040518082815260200191505060405180910390f35b61009561012d565b604051808273ffffffffffffffffffffffffffffffffffffffff1673ffffffffffffffffffffffffffffffffffffffff16815260200191505060405180910390f35b6100df610153565b604051808273ffffffffffffffffffffffffffffffffffffffff1673ffffffffffffffffffffffffffffffffffffffff16815260200191505060405180910390f35b60015481565b60035481565b600260009054906101000a900473ffffffffffffffffffffffffffffffffffffffff1681565b6000809054906101000a900473ffffffffffffffffffffffffffffffffffffffff168156fea265627a7a723158206b248d5d03f7ca6679b49d575ab9530cbeb16ab3fd098c97987b68f66639717564736f6c63430005100032",
  "source": "pragma solidity ^0.5.0;\r\n\r\ncontract SinglePoolCollat {\r\n    address public collateralPool;\r\n    uint public poolId;\r\n    address public poolOwner;\r\n    uint public openBalance;\r\n    // status\r\n    // details of exposure layer\r\n\r\n    constructor(address _poolOwner, uint _poolId) public payable {\r\n        collateralPool = msg.sender;\r\n        poolOwner = _poolOwner;\r\n        poolId = _poolId;\r\n    }\r\n    \r\n    // Function marginCall() - takes more collateral from pool\r\n    \r\n    // Function reverseMarginCall() - returns collateral to pool\r\n    \r\n    // Function unwindCollat() - returns all funds to pool\r\n    \r\n    // modifier status\r\n}",
  "sourcePath": "C:\\Users\\Ben\\Documents\\GitHub\\surevx-collatpool\\contracts\\SinglePoolCollat.sol",
  "compiler": {
    "name": "solc",
    "version": "0.5.16+commit.9c3226ce.Emscripten.clang"
  },
  "schemaVersion": "3.0.23",
  "updatedAt": "2020-02-13T16:59:32.983Z",
  "networkType": "ethereum",
  "devdoc": {
    "methods": {}
  },
  "userdoc": {
    "methods": {}
  }
}